:100000000C9458000C946A000C946A000C946A00DA
:100010000C946A000C946A000C946A000C946A00B8
:100020000C946A000C946A000C946A000C946A00A8
:100030000C946A000C946A000C946A000C946A0098
:100040000C946A000C946A000C946A000C946A0088
:100050000C94E2000C946A000C946A000C946A0000
:100060000C946A000C946A000C946A000C946A0068
:100070000C946A000C946A000C946A003C026302BF
:100080009402A802C002D202E602F6022103310362
:100090004503550369037B03B903CB03E503F7036A
:1000A0000D0421042C0440045A046F0473048804D2
:1000B00011241FBECFEFD0E1DEBFCDBF21E0A0E015
:1000C000B1E001C01D92A831B207E1F70E9418010A
:1000D0000C94CD040C9400000E9408018BE091E088
:1000E00090930A018093090181E191E090930101CD
:1000F00080930001109202010895CF93DF938FEF58
:100100000E941001C0E0D0E0E0910901F0910A01E5
:10011000EC0FFD1F8081882374F480E80E94100199
:10012000E0910901F0910A01EC0FFD1F80818058D8
:100130000E9410010CC080E00E941001E0910901B2
:10014000F0910A01EC0FFD1F80810E9410012196A1
:10015000C630D105C9F68EEF0E941001DF91CF9114
:1001600008958E3F29F08F3FB1F410920201089557
:10017000A3E0B1E080E090E02D91E0910001F091EA
:100180000101E80FF91F2083019686309105A1F740
:100190001092020108959091020190FF09C0E92F89
:1001A000E695F0E0ED5FFE4F2081820F808306C070
:1001B000E92FE695F0E0ED5FFE4F80839F5F90931F
:1001C000020108951F920F920FB60F9211242F93E0
:1001D0003F934F935F936F937F938F939F93AF93CF
:1001E000BF93EF93FF938091C6000E94B100FF91EF
:1001F000EF91BF91AF919F918F917F916F915F919F
:100200004F913F912F910F900FBE0F901F90189517
:1002100082E08093C40088E98093C10078940895B7
:10022000E0ECF0E0908195FFFDCF8093C60008954B
:100230000E946C000E9421010E94CF010E947D005B
:10024000FBCF10921701089510920B0110920C0130
:10025000EDE0F1E080818E7F8D7F808308950097AF
:1002600031F4EBE0F1E020812160208312C0813085
:10027000910531F4EBE0F1E020812260208312C08F
:100280008230910531F4EBE0F1E02081246020839D
:1002900012C08330910531F4EBE0F1E02081286059
:1002A000208312C08430910531F4EBE0F1E020812D
:1002B0002061208312C08530910531F4EBE0F1E03C
:1002C00020812062208312C08630910531F4EBE05A
:1002D000F1E020812064208312C08730910531F441
:1002E000EBE0F1E020812068208312C08830910586
:1002F00031F4ECE0F1E020812160208312C08930EC
:10030000910531F4ECE0F1E020812260208312C0FD
:100310008A30910531F4ECE0F1E020812460208303
:1003200012C08B30910531F4ECE0F1E020812860BF
:10033000208312C08C30910531F4ECE0F1E0208193
:100340002061208312C08D30910531F4ECE0F1E0A2
:1003500020812062208312C08E30910531F4ECE0C0
:10036000F1E020812064208312C08F30910531F4A8
:10037000ECE0F1E080818068808308958031910510
:1003800031F4EDE0F1E08081816080830895419750
:1003900029F4EDE0F1E080818260808308952F925E
:1003A0003F924F925F926F927F928F929F92AF9205
:1003B000BF92CF92DF92EF92FF920F931F93CF9352
:1003C000DF93CDB7DEB72C970FB6F894DEBF0FBE24
:1003D000CDBF0E942401809111018B8780FBCC242A
:1003E000C0F8D12C81FB882480F8912C82FB222438
:1003F00020F8312C83FBEE24E0F8F12C82958170FB
:100400008F8318869B8595FBAA24A0F8B12C96FBB8
:10041000882780F98D831E8297FB992790F9892F71
:1004200090E09C878B8700911201802F81708B83D5
:100430001C8201FB662460F8712C02FB992790F95D
:1004400099831A8203FB442440F8512C05FB88272A
:1004500080F989871A8607FB002700F910E0E091F0
:1004600017018E2F90E08A31910508F077C2FC01C8
:10047000E25CFF4F0C94C7048B859C85892B39F473
:1004800089819A81892B19F41092170103C081E0A8
:1004900080931701232811F4452819F087E08093F1
:1004A0001701EF2821F48D819E81892B19F08DE0B1
:1004B000809317018B859C85892B09F44FC283E1BA
:1004C000809317014BC2109217018B859C85892B55
:1004D00041F08B819C81892B41F482E0809317014C
:1004E0000CC08B819C81892B41F089819A81892B59
:1004F00041F483E0809317010AC089819A81892B96
:1005000031F0672839F484E08093170127C2672807
:1005100009F424C2452821F485E0809317011EC206
:1005200086E0809317011AC289E090E00E942F01B3
:100530008B859C85892B41F08B819C81892B21F4B3
:1005400082E0809317010AC281E08093170106C2FE
:1005500088E090E00E942F018BE090E00E942F0144
:100560008B819C81892B41F089819A81892B21F48F
:1005700083E080931701F2C181E080931701EEC1FF
:100580008AE090E00E942F01672841F489819A81D6
:10059000892B21F084E080931701E0C181E08093F2
:1005A0001701DCC18BE090E00E942F018CE090E00D
:1005B0000E942F01672831F0452821F485E08093BF
:1005C0001701CCC181E080931701C8C189E090E098
:1005D0000E942F01672831F0452821F086E08093A2
:1005E0001701BCC181E080931701B8C110921701B7
:1005F000CD2809F0A1C14114510439F088E080935D
:10060000170103C089E0809317018114910451F40C
:10061000232809F4A3C18AE080931701892809F4EB
:100620009DC106C0EF2849F48BE08093170102C0FA
:10063000EF2819F4452809F491C18CE08093170143
:100640008DC180E090E00E942F01CD2831F4452833
:1006500021F088E08093170181C187E08093170122
:100660007DC183E090E00E942F018CE090E00E9429
:100670002F01CD2831F0232821F489E08093170140
:100680006DC187E08093170169C181E090E00E940D
:100690002F01892831F4232821F08AE08093170163
:1006A0005DC187E08093170159C182E090E00E940C
:1006B0002F0184E090E00E942F01892831F0EF287B
:1006C00021F48BE08093170149C187E080931701E3
:1006D00045C180E090E00E942F01892841F0EF2879
:1006E00011F4452821F08CE08093170137C187E091
:1006F0008093170133C110921701E114F10449F0FE
:100700008F819885892B09F020C18EE08093170195
:100710000EC0CD2861F48F819885892B41F08D81A1
:100720009E81892B09F015C18FE080931701A114D8
:10073000B10461F48D819E81892B09F40FC180E1A0
:1007400080931701AB2809F409C108C08B859C85EB
:10075000892B59F481E18093170104C08B859C8516
:10076000892B19F4EF2809F4F9C082E1809317016D
:10077000F5C085E090E00E942F01EF2841F08F81C5
:100780009885892B21F48EE080931701E7C08DE0D6
:1007900080931701E3C084E090E00E942F0187E07E
:1007A00090E00E942F01CD2861F48F819885892BDC
:1007B00041F08D819E81892B21F48FE08093170178
:1007C000CDC08DE080931701C9C086E090E00E9403
:1007D0002F01AB2841F48D819E81892B21F080E18E
:1007E00080931701BBC08DE080931701B7C087E0ED
:1007F00090E00E942F0188E090E00E942F01AB283A
:1008000041F08B859C85892B21F481E18093170130
:10081000A5C08DE080931701A1C085E090E00E9403
:100820002F01AB2851F08B859C85892B11F4EF2883
:1008300021F082E18093170191C08DE08093170130
:100840008DC08B859C85892B19F41092170186C069
:1008500084E18093170182C08EE090E00E942F0116
:100860008B859C85892B41F089859A85892B21F47C
:1008700084E18093170172C085E1809317016EC0F7
:1008800080E190E00E942F0181E190E00E942F0121
:100890008B859C85892B51F089859A85892B31F030
:1008A000012B21F485E18093170158C086E18093E4
:1008B000170154C081E190E00E942F018B859C8537
:1008C000892B09F44BC089859A85892B09F446C088
:1008D000012B09F443C087E1809317013FC088E1F1
:1008E000809317013BC09091120196FB882780F9F5
:1008F00089838FE090E00E942F019981911104C0BB
:1009000088E1809317012AC089E18093170126C0EE
:10091000809112018295817089838DE090E00E9420
:100920002F019981911104C089E18093170116C0AC
:1009300081E08093170112C02114310409F462CEC2
:100940008114910409F467CE6DCECD2809F0EFCE65
:10095000E6CEA114B10409F0F9CEF1CE2C960FB673
:10096000F894DEBF0FBECDBFDF91CF911F910F91E5
:10097000FF90EF90DF90CF90BF90AF909F908F90BF
:100980007F906F905F904F903F902F900895EE0F63
:0E099000FF1F0590F491E02D0994F894FFCF1D
:00000001FF
